:10000000DEC100000CC200000AC2000008C20000ED
:1000100006C2000004C2000002C2000000C20000CC
:10002000FEC10000FCC10000FAC10000F8C10000E0
:10003000F6C10000F4C10000F2C10000F0C10000F0
:10004000EEC10000ECC10000EAC10000E8C1000000
:10005000E6C10000E4C10000E2C1000030C50000BC
:10006000DEC10000D3C30000A8C30000D8C1000057
:10007000D6C10000D4C10000D2C10000D0C1000030
:10008000CEC10000CCC10000CAC10000C8C1000040
:10009000C6C10000C4C10000C2C100005AC50000B2
:1000A000BEC10000BCC10000BAC10000B8C1000060
:1000B000B6C10000B4C10000B2C10000B0C1000070
:1000C000AEC10000ACC10000AAC10000A8C1000080
:1000D000A6C10000A4C10000A2C10000A0C1000090
:1000E0009EC100006B046E045D0461046504A504F8
:1000F000720476047C04800484048A048E049204CE
:10010000A50498049C04A004036EDB363D9A9999DB
:10011000993DABAAAA2A3E000000803F084AD73B7F
:100120003BCE016E84BCBFFDC12F3D6C74319ABDC6
:1001300056833DDA3D00C77F11BED9E4BB4C3E91EA
:100140006BAAAABE000000803F072C7AA5BA6CC536
:1001500090DA3B9365FC8BBC53F810FD3C569283C0
:100160004DBD879D3AB63DCBC9BF5BBE73DA0FC9A3
:100170003F0000407A10F35A00A0724E1809001098
:10018000A5D4E80000E87648170000E40B5402000C
:1001900000CA9A3B000000E1F50500008096980037
:1001A000000040420F000000A08601000000102760
:1001B00000000000E80300000000640000000000F0
:1001C0000A00000000000100000000002C76D88822
:1001D000DC674F0823DFC1DFAE59E1B1B796E5E335
:1001E000E453C63AE651997696E8E6C28426EB894E
:1001F0008C9B62ED407C6FFCEFBC9C9F40F2BAA5EB
:100200006FA5F490055A2AF75C936B6CF9676DC182
:100210001BFCE0E40D47FEF520E6B500D0ED902E86
:100220000300943577050080841E080000204E0AE4
:10023000000000C80C333333330F986E1283114122
:10024000EF8D2114893BE65516CFFEE6DB18D184ED
:100250004B381BF77C1D901DA4BBE4242032847214
:100260005E228100C9F124ECA1E53D27436F6D6D4D
:10027000756E69636174696F6E206661696C65642F
:100280002C2061626F72742100436F6D6D756E6911
:10029000636174696F6E20746F206D61676E657441
:1002A0006F6D65746572206661696C65642C206190
:1002B000626F7274210000002200250028002B00CC
:1002C0002E003100340002010000050108010B017D
:1002D00000000A0B02090C0D0E08070304010000C0
:1002E000000000000000000000000000000000000E
:1002F00000000000000000000000000012111000CB
:1003000000000000000000000000000000000000ED
:1003100000000000000000002100240027002A0047
:100320002D003000330001010000040107010A0123
:1003300001021020200808102040102040800201F7
:1003400002010804020101020408102040808040DC
:1003500020100804020180040201804020100804DB
:100360000201080402010102040810204080010279
:100370000408102040800505050507050808080841
:10038000020202020A0A080804040404010101012D
:100390000101010103030303030303030407070728
:1003A0000C0C0C0C0C0C0C0C0202020206060606CD
:1003B000060606060B0B0B0B0B0B0B0B211B11245C
:1003C0001FBECFEFD1E2DEBFCDBF00E00CBF25E006
:1003D000A8EBB2E001C01D92AD3FB207E1F712E019
:1003E000A0E0B2E0E2E2FAE400E00BBF02C0079056
:1003F0000D92A83BB107D9F711E0CFEDD1E000E0B5
:1004000006C021970109802FFE010E941D22CE3DCA
:10041000D10780E00807A9F74FD70C940F25F0CD3E
:10042000FC01538D448D252F30E0842F90E0821BFA
:10043000930B541710F0CF96089501970895FC017F
:10044000918D828D981761F0828DDF01A80FB11D0B
:100450005D968C91928D9F5F9F73928F90E008952F
:100460008FEF9FEF0895FC01918D828D981731F0E9
:10047000828DE80FF11D858D90E008958FEF9FEF3D
:100480000895FC01918D228D892F90E0805C9F4F13
:10049000821B91098F73992708958FE294E0F1DF11
:1004A00021E0892B09F420E0822F0895FC01848D3E
:1004B000DF01A80FB11DA35ABF4F2C91848D90E08E
:1004C00001968F739927848FA689B7892C93A08969
:1004D000B1898C91837080648C93938D848D9813F3
:1004E00006C00288F389E02D80818F7D8083089586
:1004F000EF92FF920F931F93CF93DF93EC0181E074
:10050000888F9B8D8C8D981305C0E889F98980812F
:1005100085FD25C0F62E0B8D10E00F5F1F4F0F736A
:100520001127E02E8C8DE8120BC00FB607FCFACF16
:10053000E889F989808185FFF5CFCE01B7DFF2CF59
:100540008B8DFE01E80FF11DE35AFF4FF0829FB73C
:10055000F8940B8FEA89FB89808180620AC09FB77B
:10056000F894EE89FF896083E889F9898081837036
:10057000806480839FBF81E090E0DF91CF911F91E5
:100580000F91FF90EF900895CF93DF93EC01888D4A
:100590008823C1F0EA89FB89808185FD05C0A8898F
:1005A000B9898C9186FD0EC00FB607FCF5CF80810E
:1005B00085FFF2CFA889B9898C9185FFEDCFCE0157
:1005C00075DFE8CFDF91CF91089580E090E0892B2F
:1005D00019F063DF811125C080E090E0892B41F0A4
:1005E00080E090E0892B21F00E94000081111CC066
:1005F00080E090E0892B41F080E090E0892B21F0B1
:100600000E940000811113C080E090E0892BA1F0CE
:1006100080E090E0892B81F00E94000081110AC0E7
:1006200008950E940000D8CF0E940000E1CF0E94F0
:100630000000EACF0C940000089585ED8093BC0083
:100640008091BC0084FDFCCF10922E04089540914F
:100650009603262F30E0240F311D21323105DCF4C2
:1006600020912E042430C9F4FC0180E090E086172C
:1006700058F4309196032191DC01AA58BC4FA30F86
:10068000B11D2C930196F3CF80919603680F609370
:10069000960380E0089581E0089582E0089508952A
:1006A00008950895E091C3038091C203E81730F4E0
:1006B000F0E0E851FC4F808190E008958FEF9FEFCC
:1006C00008959091C3038091C203981750F4E92FC5
:1006D000F0E0E851FC4F208130E09F5F9093C3032E
:1006E00002C02FEF3FEFC90108958091C20390E04F
:1006F0002091C303821B91090895CF92DF92EF925C
:10070000FF920F931F93CF93DF937C01CB018A015C
:100710002091C403222389F0EB016B01C40ED51E86
:10072000CC15DD0561F06991D701ED91FC91019047
:10073000F081E02DC7011995F3CF642F88DFC80140
:10074000DF91CF911F910F91FF90EF90DF90CF90AD
:100750000895CF93DF931F92CDB7DEB769832091C1
:10076000C4032223D1F02091E703203240F021E09E
:1007700030E0FC013383228380E090E014C080915C
:10078000C503E82FF0E0EA53FC4F998190838F5F17
:100790008093C5038093E70304C061E0CE01019616
:1007A00056DF81E090E00F90DF91CF91089508959A
:1007B00080E090E008950E9425221F920F920FB6CC
:1007C0000F9211240BB60F922F933F934F935F9389
:1007D0006F937F938F939F93AF93BF93EF93FF9309
:1007E0008FE294E063DEFF91EF91BF91AF919F9113
:1007F0008F917F916F915F914F913F912F910F90CA
:100800000BBE0F900FBE0F901F9018951F920F9266
:100810000FB60F9211240BB60F922F938F939F93C5
:10082000EF93FF93E0913F04F09140048081E091C9
:100830004504F091460482FD12C0908180914804E5
:100840008F5F8F7320914904821751F0E091480423
:10085000F0E0E15DFB4F958F8093480401C08081FB
:10086000FF91EF919F918F912F910F900BBE0F9061
:100870000FBE0F901F901895362F90E0FC01E053AB
:10088000FD4F4491FC01E05DFC4F2491FC01EA58CE
:10089000FC4F9491992309F46CC0442309F455C08A
:1008A00050E0FA013197E231F10508F04EC0882797
:1008B000EE58FF4F8F4F0C941D22809180008F7750
:1008C00007C0809180008F7D03C080918000877F6A
:1008D000809380003AC084B58F7702C084B58F7D45
:1008E00084BD33C08091B0008F7703C08091B00089
:1008F0008F7D8093B00029C0809190008F7707C0D2
:10090000809190008F7D03C080919000877F8093BD
:1009100090001BC08091A0008F7707C08091A0003D
:100920008F7D03C08091A000877F8093A0000DC0C1
:10093000809120018F7707C0809120018F7D03C0B7
:1009400080912001877F80932001E92FF0E0EE0F56
:10095000FF1FEA54FD4FA591B4919FB7F894311150
:1009600004C08C912095282302C0EC912E2B2C934F
:100970009FBF0895CF93DF9390E0FC01E05DFC4FB3
:100980002491FC01EA58FC4F8491882361F190E0A6
:10099000880F991FFC01EA5EFC4FC591D491FC01C0
:1009A000EA54FD4FA591B491611109C09FB7F89425
:1009B0008881209582238883EC912E230BC062309E
:1009C00061F49FB7F8948881322F30958323888310
:1009D000EC912E2B2C939FBF06C08FB7F894E88123
:1009E0002E2B28838FBFDF91CF9108953FB7F894C6
:1009F0008091BE039091BF03A091C003B091C10349
:100A000026B5A89B05C02F3F19F00196A11DB11D69
:100A10003FBFBA2FA92F982F8827820F911DA11DA4
:100A2000B11DBC01CD0142E0660F771F881F991FE1
:100A30004A95D1F708958F929F92AF92BF92CF922D
:100A4000DF92EF92FF926B017C01D0DF4B015C01E2
:100A5000C114D104E104F104E9F0C8DFDC01CB01E9
:100A600088199909AA09BB09883E9340A105B105D7
:100A700078F321E0C21AD108E108F10888EE880E67
:100A800083E0981EA11CB11CC114D104E104F1043F
:100A900021F7DECFFF90EF90DF90CF90BF90AF9027
:100AA0009F908F9008952FB7F8946091BA0370913A
:100AB000BB038091BC039091BD032FBF08951F928B
:100AC0000F920FB60F9211242F933F938F939F9302
:100AD000AF93BF938091BA039091BB03A091BC03E5
:100AE000B091BD033091B90323E0230F2D3720F4DB
:100AF0000196A11DB11D05C026E8230F0296A11D78
:100B0000B11D2093B9038093BA039093BB03A093C4
:100B1000BC03B093BD038091BE039091BF03A0912D
:100B2000C003B091C1030196A11DB11D8093BE0306
:100B30009093BF03A093C003B093C103BF91AF9143
:100B40009F918F913F912F910F900FBE0F901F900B
:100B500018951F920F920FB60F9211240BB60F9299
:100B60002F933F934F935F936F937F938F939F93B5
:100B7000AF93BF93EF93FF938091B900887F803646
:100B800009F49CC068F5883209F45BC090F48031A8
:100B900009F454C038F4882309F4F6C0883009F405
:100BA0004DC0F5C0883109F44CC0803209F45DC0F5
:100BB000EEC0803409F468C048F4803309F455C0AD
:100BC000883309F0E4C080932C04D8C0803509F440
:100BD0004FC0883509F45DC0883409F0D8C0D6C04C
:100BE000883909F4C7C0A8F4883709F467C038F415
:100BF000883609F463C0803709F460C0C8C08838FB
:100C000009F4B8C0803909F45FC0803809F0BFC06A
:100C10005BC0803B09F486C038F4803A09F466C0B2
:100C2000883A09F47FC0B3C0803C09F4A7C0883C6F
:100C300009F4A4C0883B09F48AC0A9C080912904A2
:100C400010C090912B0480912A04981770F5E091C0
:100C50002B0481E08E0F80932B04F0E0E85FFB4FC4
:100C600080818093BB0085EC86C080932C048EC06D
:100C7000E0912B0481E08E0F80932B048091BB00C8
:100C8000F0E0E85FFB4F808390912B0480912A0471
:100C90006EC0E0912B0481E08E0F80932B04809135
:100CA000BB00F0E0E85FFB4F808380912D04811151
:100CB0006DC081E08093280484EA61C083E0809362
:100CC0002E041092B803CFCF8091B803803208F081
:100CD00051C0E091B80381E08E0F8093B8038091FA
:100CE000BB00F0E0E856FC4F8083BDCF85EC8093DD
:100CF000BC0010922E048091B803803230F4E09151
:100D0000B803F0E0E856FC4F10826091B80370E041
:100D1000E091F905F091FA0588E993E019951092B0
:100D2000B80335C084E080932E041092970310928C
:100D30009603E091FB05F091FC05199580919603CF
:100D4000811105C081E08093960310927603E091B3
:100D5000970381E08E0F80939703F0E0EA58FC4FF1
:100D600080818093BB0090919703809196039817A0
:100D700008F479CF85E88093BC0009C085EC8093A6
:100D8000BC0010922E0403C010922C0456DCFF917C
:100D9000EF91BF91AF919F918F917F916F915F91F3
:100DA0004F913F912F910F900BBE0F900FBE0F9060
:100DB0001F9018958FB7F894809175038FBF089591
:100DC0008EBD00000DB407FEFDCF8EB508958CBD1D
:100DD0009DBD0895EFE2F4E0A089B18982E08C9393
:100DE000A485B5851C92A685B78580E18C93108E6D
:100DF000A489B58986E08C93A289B3898C9180619E
:100E00008C93A289B3898C9188608C93A289B389D1
:100E10008C9180688C930288F389E02D80818F7D8E
:100E20008083089590912E049111FCCF91E09093CE
:100E30002E0490932D042FEF20932C0410922B045A
:100E4000260F20932A049093290490912904880F57
:100E5000892B8093290480912804813061F41092B9
:100E60002804809129048093BB008091BC0083FDFD
:100E7000F8CF85EC01C085EE8093BC0080912E04F4
:100E80008130E1F380912B04861710F460912B04DC
:100E9000A8E0B4E0E8EEF3E080E0861721F09D9151
:100EA00091938F5FFACF0895282F3091E703313265
:100EB00008F04AC080912E048111FCCF9091E60386
:100EC00042E040932E0420932D042FEF20932C0416
:100ED00010922B0430932A04E6ECF3E0A8E0B4E08F
:100EE00020E0321721F041914D932F5FFACF1092FD
:100EF000290420912904990F922B90932904909111
:100F00002804913061F41092280490912904909360
:100F1000BB009091BC0093FDF8CF95EC01C095EE1D
:100F20009093BC0090912E049230E1F390912C04A8
:100F30009F3F79F080912C04803241F080912C0405
:100F4000803331F084E005C081E003C082E001C05D
:100F500083E01092C5031092E7031092C403089532
:100F6000EF92FF920F931F93CF93DF93F82ED62F1C
:100F7000C42F8901809124058F3F59F581E080932A
:100F8000C403F092E6031092C5031092E70384E1D4
:100F900095E0DFDB80E088DF6C2FC13208F060E293
:100FA0008F2D40DF1092C3038093C20380E0209115
:100FB000C2039091C303291759F1C1E0C80F78010A
:100FC000E80EF11C84E195E07CDBF70180838C2F37
:100FD000EECF8DE590E0FBDE60E0809124054CDCF7
:100FE0008D2F8068EDDE7801EC0EF11C0E151F05CB
:100FF00031F080E0E5DEF80181938F01F7CF61E009
:101000008091240539DC83EC90E00197F1F78C2F77
:10101000DF91CF911F910F91FF90EF9008950F9363
:101020001F93CF93DF93082F162F8DE590E0CFDE2F
:10103000C0E2D5E060E08C811FDC802FC1DE812F13
:10104000BFDE182F61E08C8117DC812FDF91CF91FB
:101050001F910F910895CF92DF92EF92FF920F931D
:101060001F93CF93DF936C017A018B01C0E0D0E036
:10107000CE15DF0581F0D8016D918D01D601ED917E
:10108000FC910190F081E02DC6011995892B11F09A
:101090002196EECF7E01C701DF91CF911F910F9175
:1010A000FF90EF90DF90CF900895CF93C82F862FB9
:1010B000909124059F3F21F06FEF8068CF91AFCFD3
:1010C00081E08093C403C093E6031092C50310929D
:1010D000E70384E195E03DDB80E0E6DE61E08C2F14
:1010E000A1DE1092C3038093C20384E195E0E9DAA4
:1010F000CF9108950F931F93CF93DF93CDB7DEB7B2
:1011000027970FB6F894DEBF0FBECDBF8C0162E00B
:101110008CE0CBDF80FF17C09E012F5F3F4F47E081
:1011200063E08CE01DDF8F8183FD0DC089819A8192
:10113000F801918380838B819C81938382838D814D
:101140009E819583848327960FB6F894DEBF0FBEE9
:10115000CDBFDF91CF911F910F9108951092C303DE
:101160001092C2031092C5031092E70310922E044E
:1011700081E080932D041092280461E084E17CDBFF
:1011800061E085E179DBE9EBF0E080818E7F8083AF
:1011900080818D7F808388E48093B80085E480938C
:1011A000BC008FE493E09093FC058093FB0580E501
:1011B00093E09093FA058093F9050895CF93982FC3
:1011C000862F209124052F3F19F0642FCF9127CF30
:1011D000C42F81E08093C4039093E6031092C5036B
:1011E0001092E70384E195E0B4DA6C2F84E195E096
:1011F000B0DA81E059DE80E0CF9108956115710584
:1012000079F0FB0101900020E9F73197AF01461B0F
:10121000570BDC01ED91FC910280F381E02D1994D4
:1012200080E090E008958F929F92AF92BF92EF92EC
:10123000FF920F931F93CF93DF93CDB7DEB7A197A4
:101240000FB6F894DEBF0FBECDBF7C01FA01CB0113
:1012500019A2223008F42AE08E010F5D1F4F822E62
:10126000912CA12CB12CBF01A50194010E94D31F88
:10127000F901CA01015011096A3014F4605D01C01E
:10128000695CD8016C93232B242B252B61F7B801C3
:10129000C701B4DFA1960FB6F894DEBF0FBECDBF75
:1012A000DF91CF911F910F91FF90EF90BF90AF9082
:1012B0009F908F900895A2CFCF93DF93CDB7DEB7E5
:1012C000CA58D1090FB6F894DEBF0FBECDBF7894CF
:1012D00084B5826084BD84B5816084BD85B582603B
:1012E00085BD85B5816085BD80916E0081608093EC
:1012F0006E00109281008091810082608093810055
:101300008091810081608093810080918000816064
:10131000809380008091B10084608093B1008091BF
:10132000B00081608093B0008091910082608093D2
:101330009100809191008160809391008091900054
:101340008160809390008091A10082608093A100D1
:101350008091A10081608093A1008091A0008160B4
:101360008093A0008091210182608093210180916F
:10137000210181608093210180912001816080930F
:10138000200180917A00846080937A0080917A00B5
:10139000826080937A0080917A00816080937A00E5
:1013A00080917A00806880937A001092C100109238
:1013B000100510921105109212051092130510924B
:1013C000CE041092CF041092D0041092D1046BDBA3
:1013D0006B017C014B015C0128EB820E2BE0921E1D
:1013E000A11CB11C60DB6C157D058E059F0528F0E6
:1013F00086169706A806B906A8F78FE294E09093A0
:101400000F0580930E05E6DC4EDB6093CE047093EF
:10141000CF048093D0049093D10461E472E0809172
:101420000E0590910F0547DF3EDB6B017C014B0100
:101430005C013AE0830E911CA11CB11C34DB6C15DD
:101440007D058E059F0528F086169706A806B90625
:10145000A8F781E08093E20481DEBCDC60E08CE0F0
:1014600089DA60E08CE008DA61E08DE083DA61E03F
:101470008DE002DA65E788E618DE182F813709F07B
:1014800088C540E86BE688E699DE64E670E080E0B7
:1014900090E0D1DA41E06BE688E690DE40E06CE671
:1014A00088E68CDE68EC70E080E090E0C4DA40E032
:1014B00068E388E683DE40E063E288E67FDE40E0C2
:1014C0006BE688E67BDE40E064E288E677DE40E0BB
:1014D0006AE688E673DE4CE06AE688E66FDE6FE077
:1014E00070E080E090E0A7DA41E06AE188E666DE3D
:1014F00040E069E188E662DE40E06BE188E65EDEBE
:1015000040E06CE188E65ADE40E46AE688E656DEB2
:1015100048E763E288E652DE68E270E080E090E04F
:101520008ADA40E063E288E649DE8E01035F1F4FFE
:10153000980142E062E788E613DD8D859E85982755
:10154000892798276CE070E00E94ED216B011F8EC7
:1015500018A219A21AA2812C912C5401412C512CB1
:1015600032011FA218A619A61AA61BA61CA61DA604
:101570001EA61BA21CA21DA21EA2E12CF12CCE14A1
:10158000DF0409F477C098014CE064E788E6E8DC02
:101590008D859E85982789279827092E000CAA0BF0
:1015A000BB0B480E591E6A1E7B1E8F859889982793
:1015B00089279827092E000CAA0BBB0B880E991EB1
:1015C000AA1EBB1E89899A89982789279827092EE0
:1015D000000CAA0BBB0B2F8D38A149A15AA1280FD3
:1015E000391F4A1F5B1F2F8F38A349A35AA38B892A
:1015F0009C89982789279827092E000CAA0BBB0BDA
:101600002BA13CA14DA15EA1280F391F4A1F5B1FD2
:101610002BA33CA34DA35EA38D899E899827892780
:101620009827092E000CAA0BBB0B2BA53CA54DA59A
:101630005EA5280F391F4A1F5B1F2BA73CA74DA78C
:101640005EA78F89988D982789279827092E000CE7
:10165000AA0BBB0B2FA138A549A55AA5280F391FE6
:101660004A1F5B1F2FA338A749A75AA73FEFE31ACA
:10167000F30A85CFE12CF12CC301B201A701960139
:101680000E9401222FA738AB49AB5AABC501B40168
:10169000A70196010E9401222BAB3CAB4DAB5EAB88
:1016A0006F8D78A189A19AA1A70196010E940122BC
:1016B00049015A016BA17CA18DA19EA1A7019601B0
:1016C0000E94012229013A016BA57CA58DA59EA54A
:1016D000A70196010E9401222BA33CA34DA35EA368
:1016E0006FA178A589A59AA5A70196010E9401225C
:1016F0002BA73CA74DA75EA7181419041A041B04B6
:1017000054F4D501C4019054A109B1098F8F98A355
:10171000A9A3BAA309C0A5019401305C4F4F5F4F44
:101720002F8F38A349A35AA364E0C62ED12CE12CF5
:10173000F12CC301B201A70196010E94012250952C
:101740004095309521953F4F4F4F5F4FBB2757FD39
:10175000BA95A52F942F832F8FA398A7A9A7BAA7CF
:101760008D872E876BA17CA18DA19EA1A7019601DB
:101770000E94012250954095309521953F4F4F4F43
:101780005F4F3F87288B6BA57CA58DA59EA5A701E4
:1017900096010E94012250954095309521953F4F2A
:1017A0004F4F5F4F398B2A8B4FA163E188E606DDEF
:1017B0004E8564E188E602DD4F8565E188E6FEDC62
:1017C000488966E188E6FADC498967E188E6F6DC63
:1017D0004A8968E188E6F2DCC301B2010E94C01EBA
:1017E00020E030E043E053E40E94D3206093B7054B
:1017F0007093B8058093B9059093BA056BA17CA14D
:101800008DA19EA10E94C01E20E030E043E053E481
:101810000E94D3206093BB057093BC058093BD05E7
:101820009093BE056BA57CA58DA59EA50E94C01EAC
:1018300020E030E043E053E40E94D3206093BF05F2
:101840007093C0058093C1059093C2058E01035F1C
:101850001F4F980142E067E788E682DB8D849E8413
:10186000982489249824092C000CAA08BB08898292
:101870009A82AB82BC82980142E06AE788E670DB1C
:10188000CD84DE84DC24CD24DC240D2C000CEE0879
:10189000FF08CD82DE82EF82F886980142E06DE794
:1018A00088E65EDB8D859E859827892798279C0191
:1018B000990F440B550B2BA33CA34DA35EA3298783
:1018C0003A874B875C87198E1A8E1B8EFE013196E4
:1018D000DE01599681E0419151916191719140FDF4
:1018E0008C931196E017F107B1F748E0442E512C84
:1018F000612C712C6FA578A989A99AA9A3019201DD
:101900000E940122821A930AA40AB50A6BA97CA933
:101910008DA99EA9A30192010E940122C21AD30A95
:10192000E40AF50A6F8D78A189A19AA1A301920119
:101930000E9401228BA19CA1ADA1BEA1821B930B91
:10194000A40BB50B7727B7FC7A956B2D5A2D492D33
:101950004D87298D822A8E86DF862A8DC22AC88AE3
:10196000998B2B8D822B8A8B67E788E627DC4E8547
:1019700068E788E623DC4F856AE788E61FDC48894C
:101980006BE788E61BDC49896DE788E617DC4A8946
:101990006EE788E613DC6FA578A989A99AA90E9449
:1019A000C01E20E030E040E858E30E941F1F609313
:1019B000C3057093C4058093C5059093C6056BA9B4
:1019C0007CA98DA99EA90E94C01E20E030E040E8BD
:1019D00058E30E941F1F6093C7057093C80580934A
:1019E000C9059093CA056F8D78A189A19AA10E941B
:1019F000C01E20E030E040E858E30E941F1F6093C3
:101A0000CB057093CC058093CD059093CE0540E037
:101A10006BE688E6D3DB64E670E080E090E00BD80C
:101A200041E06BE688E6CADB68EC70E080E090E0BD
:101A300002D843E06AE188E6C1DB44E069E188E678
:101A4000BDDB6BE188E631DB2091200548E0249F77
:101A500090011124857E482F422B6BE188E6AEDB96
:101A60006CE188E622DB2091210558E0259F90015A
:101A70001124877E482F422B6CE188E69FDB6DE1C5
:101A800088E613DB807F482F43606DE188E696DBB4
:101A900042E267E388E692DB41E068E388E68EDBBA
:101AA00064E670E080E090E00E941B0560E08CE05E
:101AB000FCDA883419F089E892E07FC240E06AE0FD
:101AC0008CE07CDB64E670E080E090E00E941B0527
:101AD0004FE06AE08CE072DB64E670E080E090E06A
:101AE0000E941B059E012F5F3F4F43E060E18CE0A9
:101AF00037DA698170E060587109072E000C880B95
:101B0000990B0E94C01E20E030E040E85BE30E9499
:101B10001F1F20E030E040E85FE30E94F61F609363
:101B20009F057093A0058093A1059093A2056A81FB
:101B300070E060587109072E000C880B990B0E9409
:101B4000C01E20E030E040E85BE30E941F1F20E061
:101B500030E040E85FE30E94F61F6093A3057093B6
:101B6000A4058093A5059093A6056B8170E060584D
:101B70007109072E000C880B990B0E94C01E20E0F3
:101B800030E040E85BE30E941F1F20E030E040E8C7
:101B90005FE30E94F61F6093A7057093A8058093EA
:101BA000A9059093AA0540E06AE08CE007DB64E6B3
:101BB00070E080E090E00E941B0580912205A0E18A
:101BC0008A9FC001112440912305482B6AE08CE0D4
:101BD000F5DA64E670E080E090E00E941B058091F9
:101BE0002105813079F048F0823089F08330D9F4D2
:101BF00080E090E0A0E0BAE30EC080E090E0A0E8D2
:101C0000B8E309C080E090E0A0E0B9E304C080E060
:101C100090E0A0E8B9E380936F0590937005A093DE
:101C20007105B093720580912005813079F048F0FC
:101C3000823089F08330D9F480E090E0AAE7BDE3F8
:101C40000EC080E090E0AAEFBBE309C080E090E026
:101C5000AAE7BCE304C080E090E0AAEFBCE3809375
:101C6000730590937405A0937505B09376058091E4
:101C70002205882339F0813089F44FEF5BEE6FEB5A
:101C80007FE304C04FEF5BEE6FEB70E440937705AA
:101C9000509378056093790570937A0596E0E0E1BA
:101CA000F2E0DE01599601900D929A95E1F796E0E7
:101CB000E6E1F2E0DE011D9601900D929A95E1F7C2
:101CC0001A8219821C821B821E821D82882339F08F
:101CD000813089F48FEF9BEEAFEBBFE304C08FEF51
:101CE0009BEEAFEBB0E48093770590937805A093DB
:101CF0007905B0937A0580912305823041F08630D2
:101D000009F04CC03CEDE32E35E0F32E03C020E893
:101D1000E22EF12C00E010E06E01BFE1CB0ED11CF1
:101D2000CE010196E7D99E012F5F3F4FFE017996C4
:101D3000BE01635F7F4FD9018D919D919D014081CF
:101D400051814817590714F491838083DB014D9129
:101D50005C9111978417950714F48D939C93329698
:101D60006E5F7F4FEC15FD0531F7809123058230C2
:101D700031F467E870E080E090E00E941B058091FC
:101D80002305863031F46CE070E080E090E00E9442
:101D90001B050F5F1F4FE016F10611F6898C9A8C18
:101DA0006D847E84CB8CDC8CAF84B888ED8CFE8C0B
:101DB00009891A8920907705309078054090790537
:101DC00050907A05B401660D771D072E000C880B24
:101DD000990B0E94C01E20E030E040E05FE30E94CB
:101DE0001F1FA20191010E941F1F20919F0530918A
:101DF000A0054091A1055091A2050E941F1F60936C
:101E00002505709326058093270590932805B60134
:101E10006A0D7B1D072E000C880B990B0E94C01EBB
:101E200020E030E040E05FE30E941F1FA20191012B
:101E30000E941F1F2091A3053091A4054091A50584
:101E40005091A6050E941F1F6093290570932A05D3
:101E500080932B0590932C05B701600F711F072EFF
:101E6000000C880B990B0E94C01E20E030E040E07F
:101E70005FE30E941F1FA20191010E941F1F20917A
:101E8000A7053091A8054091A9055091AA050E9487
:101E90001F1F60932D0570932E0580932F0590933F
:101EA0003005B40166197709072E000C880B990BD1
:101EB0000E94C01E20E030E040E05FE30E941F1F50
:101EC0002B013C01B6016A197B09072E000C880B17
:101ED000990B0E94C01E20E030E040E05FE30E94CA
:101EE0001F1F4B015C01B701601B710B072E000C1B
:101EF000880B990B0E94C01E20E030E040E05FE3B9
:101F00000E941F1F6F8F78A389A39AA3A501940134
:101F1000C301B2010E94F61F2F8D38A149A15AA119
:101F20000E94F61F20E030E040E450E40E94D320FD
:101F30006B017C01A30192010E94D3206093CF0525
:101F40007093D0058093D1059093D205A50194019B
:101F5000C701B6010E94D3206093D3057093D405C6
:101F60008093D5059093D6052F8D38A149A15AA10C
:101F7000C701B6010E94D3206093D7057093D8059E
:101F80008093D9059093DA059BE2292E93E0392EB0
:101F9000D9C063E572E08FE294E08DD9412F50E023
:101FA00060E070E020E18FE294E03DD960E572E00E
:101FB0008FE294E023D98CE692E00E942B1C8FE202
:101FC00094E00E94C4020E9425220E9453056230C0
:101FD00071058105910510F00C94071A6AE388E6F3
:101FE00064D880FDB8C00E94530500914705109148
:101FF00048052091490530914A05DC01CB01801B41
:10200000910BA20BB30B8093430590934405A093CF
:102010004505B0934605853F9140A105B105D0F037
:102020000E945305609347057093480580934905C6
:1020300090934A0510924B0510924C0510924D0555
:1020400010924E05109253051092540510925505AA
:1020500010925605609135057091360580913705CF
:102060009091380503E013E022E047E00E944D1C08
:10207000609131057091320580913305909134055E
:102080000DE013E022E047E00E944D1C609139050D
:1020900070913A0580913B0590913C0507E113E072
:1020A00022E047E00E944D1C60914F057091500561
:1020B000809151059091520501E213E022E047E042
:1020C0000E944D1CC8019F930F9387E193E09F935B
:1020D0008F938DE093E09F938F9383E093E09F93A2
:1020E0008F9348E852E05F934F933F922F920E9464
:1020F0003422F10101900020E9F7CF018952934089
:1021000090930203809301039F938F93A1EBB2E01E
:10211000BF93AF9388EBE82E82E0F82EFF92EF9208
:102120000E9434226BE273E0C7010E942922B701AA
:102130008FE294E0C0D80FB6F894DEBF0FBECDBFDB
:102140000E94E5020E945305672B682B692B11F052
:102150000C94071A3ACF9E012F5F3F4F46E06BE386
:1021600088E60E94B00769817A81762767277627FB
:102170007093F4056093F305EB80FC80FE24EF245C
:10218000FE24F092F605E092F5050D811E811027E0
:10219000012710271093F8050093F70580906F052D
:1021A00090907005A0907105B0907205072E000CFC
:1021B000880B990B0E94C01EA50194010E941F1F4D
:1021C00060937B0570937C0580937D0590937E05DD
:1021D000B701FF0C880B990B0E94C01EA50194014A
:1021E0000E941F1F60937F05709380058093810577
:1021F00090938205B801110F880B990B0E94C01EA5
:10220000A50194010E941F1F6093830570938405AC
:1022100080938505909386059E012F5F3F4F46E092
:1022200063E488E60E94B00769817A817627672790
:1022300076277093640560936305EB80FC80FE2431
:10224000EF24FE24F0926605E09265050D811E8163
:1022500010270127102710936805009367058090C9
:10226000730590907405A0907505B0907605072EC3
:10227000000C880B990B0E94C01EA50194010E94BE
:102280001F1F60938705709388058093890590933D
:102290008A05B701FF0C880B990B0E94C01EA5018F
:1022A00094010E941F1F60938B0570938C0580938F
:1022B0008D0590938E05B801110F880B990B0E9424
:1022C000C01EA50194010E941F1F60938F0570938B
:1022D0009005809391059093920589E695E00E9480
:1022E0007A08C0907705D0907805E0907905F09055
:1022F0007A056091690570916A05072E000C880BBC
:10230000990B0E94C01EA70196010E941F1F2091D9
:102310009F053091A0054091A1055091A2050E9412
:102320001F1F2091250530912605409127055091CA
:1023300028050E94F51F6093930570939405809380
:1023400095059093960560916B0570916C05072E2D
:10235000000C880B990B0E94C01EA70196010E94D9
:102360001F1F2091A3053091A4054091A505509110
:10237000A6050E941F1F2091290530912A05409132
:102380002B0550912C050E94F51F609397057093C3
:1023900098058093990590939A0560916D057091C9
:1023A0006E05072E000C880B990B0E94C01EA7011A
:1023B00096010E941F1F2091A7053091A80540910A
:1023C000A9055091AA050E941F1F20912D0530914B
:1023D0002E0540912F05509130050E94F51F609306
:1023E0009B0570939C0580939D0590939E050E948C
:1023F000F6046B017C0160935F0570936005809328
:102400006105909362058091570590915805A091C0
:102410005905B0915A05A7019601281B390B4A0BA3
:102420005B0BCA01B9010E94BE1E20E034E244E702
:1024300059E40E94D3206B966CAF7DAF8EAF9FAFF7
:102440006B9760934F05709350058093510590935F
:102450005205C0925705D0925805E0925905F09266
:102460005A059B01AC016091530570915405809110
:102470005505909156050E94F61F60935305709381
:102480005405809355059093560580914B05909186
:102490004C05A0914D05B0914E050196A11DB11DB1
:1024A00080934B0590934C05A0934D05B0934E053A
:1024B000C0908305D0908405E0908505F090860556
:1024C000CFA6D8AAE9AAFAAAC0907F05D090800525
:1024D000E0908105F0908205CBAEDCAEEDAEFEAEB5
:1024E000C0907B05D0907C05E0907D05F0907E0546
:1024F0002396CCAEDDAEEEAEFFAE2397A7019601DC
:10250000C701B6010E941F1F6B017C012BAD3CADC2
:102510004DAD5EADCA01B9010E941F1F9B01AC0108
:10252000C701B6010E94F61F6B017C012FA538A9D7
:1025300049A95AA9CA01B9010E941F1F9B01AC01F8
:10254000C701B6010E94F61F0E9497214B015C0152
:1025500020E030E0A9010E94BA1E882309F449C690
:10256000C0909B05D0909C05E0909D05F0909E0545
:10257000CFAAD8AEE9AEFAAEC0909305D09094053C
:10258000E0909505F0909605CBAADCAAEDAAFEAAEC
:10259000C0909705D0909805E0909905F0909A0525
:1025A000A7019601C701B6010E941F1F2B013C0124
:1025B0002BA93CA94DA95EA9CA01B9010E941F1F00
:1025C0009B01AC01C301B2010E94F61F2B013C012B
:1025D0002FA938AD49AD5AADCA01B9010E941F1FDC
:1025E0009B01AC01C301B2010E94F61F0E9497211A
:1025F0002B013C0120E030E0A9010E94BA1E882393
:1026000009F4F7C5209100023091010240910202C5
:10261000509103022FA338A749A75AA7809104021B
:1026200090910502A0910602B09107028F8F98A3A6
:10263000A9A3BAA3209108023091090240910A028D
:1026400050910B022BA33CA34DA35EA380910C02DF
:1026500090910D02A0910E02B0910F028BA79CA742
:10266000ADA7BEA72F8D38A149A15AA16FA178A50A
:1026700089A59AA50E941F1F2F966CAF7DAF8EAFC4
:102680009FAF2F972BA13CA14DA15EA16FA178A573
:1026900089A59AA50E941F1F63966CAF7DAF8EAF70
:1026A0009FAF63972BA53CA54DA55EA56FA178A50F
:1026B00089A59AA50E941F1F67966CAF7DAF8EAF4C
:1026C0009FAF67972F8D38A149A15AA1CA01B901BF
:1026D0000E941F1FA7966CAF7DAF8EAF9FAFA797CD
:1026E0002BA13CA14DA15EA16F8D78A189A19AA1DA
:1026F0000E941F1FAB966CAF7DAF8EAF9FAFAB97A5
:102700002BA53CA54DA55EA56F8D78A189A19AA1A9
:102710000E941F1FAF966CAF7DAF8EAF9FAFAF977C
:102720002BA13CA14DA15EA1CA01B9010E941F1FAE
:1027300027966CAF7DAF8EAF9FAF27972BA53CA59B
:102740004DA55EA56BA17CA18DA19EA10E941F1F1E
:10275000E3966CAF7DAF8EAF9FAFE3972BA53CA503
:102760004DA55EA5CA01B9010E941F1F2B966CAF33
:102770007DAF8EAF9FAF2B97A501940160E070E015
:1027800080E89FE30E94D3204B015C019B01AC01D8
:1027900023966CAD7DAD8EAD9FAD23970E941F1F1C
:1027A000E7966CAF7DAF8EAF9FAFE797A501940121
:1027B0006BAD7CAD8DAD9EAD0E941F1FEB966CAFD7
:1027C0007DAF8EAF9FAFEB97A50194016FA578A960
:1027D00089A99AA90E941F1FEF966CAF7DAF8EAF9B
:1027E0009FAFEF97A301920160E070E080E89FE364
:1027F0000E94D3204B015C019B01AC01C701B601D3
:102800000E941F1F6FA778AB89AB9AABA5019401FB
:102810006BA97CA98DA99EA90E941F1F6BAB7CABE5
:102820008DAB9EABA50194016FA978AD89AD9AAD32
:102830000E941F1F6FAB78AF89AF9AAF2FA538A941
:1028400049A95AA9CA01B9010E94F61F23966CAF83
:102850007DAF8EAF9FAF239727962CAD3DAD4EAD8C
:102860005FAD279760E070E080E09FE30E94F51F76
:102870002B962CAD3DAD4EAD5FAD2B970E94F51F55
:10288000C158DF4F688379838A839B83CF57D040B9
:102890002BA93CA94DA95EA9CA01B9010E94F61F46
:1028A0006F966CAF7DAF8EAF9FAF6F9767962CAD75
:1028B0003DAD4EAD5FAD6797AB966CAD7DAD8EAD6A
:1028C0009FADAB970E94F51FCD57DF4F688379838B
:1028D0008A839B83C358D0402FA938AD49AD5AADE8
:1028E000CA01B9010E94F61FA3966CAF7DAF8EAFEF
:1028F0009FAFA397AF962CAD3DAD4EAD5FADAF97FB
:1029000063966CAD7DAD8EAD9FAD63970E94F61F53
:10291000C957DF4F688379838A839B83C758D04028
:10292000C158DF4F288139814A815B81CF57D04020
:1029300023966CAD7DAD8EAD9FAD23970E941F1F7A
:102940006B017C01CD57DF4F288139814A815B8142
:10295000C358D0406F966CAD7DAD8EAD9FAD6F9777
:102960000E941F1F9B01AC01C701B6010E94F61F08
:102970006B017C01C957DF4F288139814A815B8116
:10298000C758D040A3966CAD7DAD8EAD9FADA397DB
:102990000E941F1F9B01AC01C701B6010E94F61FD8
:1029A0002B013C01A7962CAD3DAD4EAD5FADA79779
:1029B00060E070E080E09FE30E94F51F4B015C0146
:1029C000AB962CAD3DAD4EAD5FADAB9767966CADA4
:1029D0007DAD8EAD9FAD67970E94F61F23962CADFF
:1029E0003DAD4EAD5FAD23970E941F1F6B017C0173
:1029F0002B962CAD3DAD4EAD5FAD2B97C501B4010F
:102A00000E94F51F6F962CAD3DAD4EAD5FAD6F973B
:102A10000E941F1F9B01AC01C701B6010E94F61F57
:102A20006B017C012F962CAD3DAD4EAD5FAD2F9768
:102A3000E3966CAD7DAD8EAD9FADE3970E94F51F23
:102A4000A3962CAD3DAD4EAD5FADA3970E941F1F69
:102A50009B01AC01C701B6010E94F61F6B017C010E
:102A6000A3019201C301B2010E941F1F2B013C016F
:102A7000A7019601C701B6010E941F1F9B01AC016F
:102A8000C301B2010E94F61F0E9497216B017C01D5
:102A900063962CAD3DAD4EAD5FAD6397AF966CAD1B
:102AA0007DAD8EAD9FADAF970E94F51F6BAF7CAF34
:102AB0008DAF9EAFE3962CAD3DAD4EAD5FADE397D0
:102AC0002F966CAD7DAD8EAD9FAD2F970E94F61FFA
:102AD0002B013C0127962CAD3DAD4EAD5FAD279748
:102AE000C501B4010E94F51F2F966CAF7DAF8EAF6C
:102AF0009FAF2F972BAD3CAD4DAD5EADCA01B90177
:102B00000E94F61F63966CAF7DAF8EAF9FAF639749
:102B1000A3019201C301B2010E94F61F67966CAF38
:102B20007DAF8EAF9FAF67972FA138A549A55AA556
:102B3000CA01B9010E941F1FA7962CAD3DAD4EAD35
:102B40005FADA7970E94F51F27962CAD3DAD4EAD0A
:102B50005FAD27970E94F51F2B962CAD3DAD4EAD76
:102B60005FAD2B970E94F61F27966CAF7DAF8EAF9F
:102B70009FAF2797A7019601C701B6010E94F61FD4
:102B80004B015C012BAD3CAD4DAD5EAD23966CAD04
:102B90007DAD8EAD9FAD23970E941F1F6B017C0101
:102BA000A30192016F966CAD7DAD8EAD9FAD6F9719
:102BB0000E941F1F9B01AC01C701B6010E94F61FB6
:102BC0006B017C012F962CAD3DAD4EAD5FAD2F97C7
:102BD000A3966CAD7DAD8EAD9FADA3970E941F1FD8
:102BE0009B01AC01C701B6010E94F61F9B01AC011D
:102BF0000E94F61F6B017C01A5019401C158DF4FB3
:102C0000688179818A819B81CF57D0400E941F1FA4
:102C100023966CAF7DAF8EAF9FAF2397A701960130
:102C20006BAD7CAD8DAD9EAD0E941F1F9B01AC01B5
:102C300023966CAD7DAD8EAD9FAD23970E94F61FA0
:102C400023966CAF7DAF8EAF9FAF2397A501940104
:102C5000CD57DF4F688179818A819B81C358D040ED
:102C60000E941F1F6BAF7CAF8DAF9EAFA701960177
:102C7000C301B2010E941F1F9B01AC016BAD7CAD73
:102C80008DAD9EAD0E94F61F2B966CAF7DAF8EAFC3
:102C90009FAF2B97A5019401C957DF4F68817981B8
:102CA0008A819B81C758D0400E941F1F4B015C0145
:102CB000A70196012F966CAD7DAD8EAD9FAD2F9780
:102CC0000E941F1F9B01AC01C501B4010E94F61FA9
:102CD0006B017C0127962CAD3DAD4EAD5FAD2797C6
:102CE000EB966CAD7DAD8EAD9FADEB970E941F1F37
:102CF0004B015C0167962CAD3DAD4EAD5FAD679766
:102D0000EF966CAD7DAD8EAD9FADEF970E941F1F0E
:102D10009B01AC01C501B4010E94F51F4B015C0190
:102D2000A70196016BA97CA98DA99EA90E941F1FCE
:102D30002B013C012B962CAD3DAD4EAD5FAD2B97DD
:102D40006FA978AD89AD9AAD0E941F1F9B01AC01A0
:102D5000C301B2010E94F51F9B01AC01C501B40182
:102D60000E94F61F20E030E040E251E40E941F1F65
:102D70004B015C0125E33AEF4EE85CE36091870587
:102D8000709188058091890590918A050E941F1F86
:102D90009B01AC01C501B4010E94F61F20E030E0A8
:102DA000A9010E94F61F6BAF7CAF8DAF9EAF6396FB
:102DB0002CAD3DAD4EAD5FAD6397EF966CAD7DAD87
:102DC0008EAD9FADEF970E941F1F4B015C012796B0
:102DD0002CAD3DAD4EAD5FAD2797E7966CAD7DADAB
:102DE0008EAD9FADE7970E941F1F9B01AC01C501EF
:102DF000B4010E94F51F4B015C0123962CAD3DAD43
:102E00004EAD5FAD23976FA978AD89AD9AAD0E94A5
:102E10001F1F2B013C01A70196016FA578A989A965
:102E20009AA90E941F1F9B01AC01C301B2010E941D
:102E3000F51F9B01AC01C501B4010E94F61F20E003
:102E400030E040E251E4FBD76B017C0125E33AEF2F
:102E50004EE85CE360918B0570918C0580918D0547
:102E600090918E05ECD79B01AC01C701B6010E9481
:102E7000F61F20E030E0A9010E94F61F6FAB78AF8B
:102E800089AF9AAF67962CAD3DAD4EAD5FAD6797FC
:102E9000E7966CAD7DAD8EAD9FADE797D0D76B015A
:102EA0007C0163962CAD3DAD4EAD5FAD6397EB9667
:102EB0006CAD7DAD8EAD9FADEB97C1D79B01AC01E5
:102EC000C701B6010E94F51F6B017C012B962CAD4A
:102ED0003DAD4EAD5FAD2B976FA578A989A99AA995
:102EE000AED74B015C0123962CAD3DAD4EAD5FAD31
:102EF00023976BA97CA98DA99EA9A1D79B01AC01A1
:102F0000C501B4010E94F51F9B01AC01C701B601C8
:102F10000E94F61F20E030E040E251E490D76B01C0
:102F20007C0125E33AEF4EE85CE360918F057091F8
:102F30009005809191059091920581D79B01AC01FC
:102F4000C701B6010E94F61F20E030E0A9010E94EF
:102F5000F61F6FA778AB89AB9AAB20E030E040E07A
:102F60005FE36B966CAD7DAD8EAD9FAD6B9767D714
:102F70004B015C016F8D78A189A19AA190582BAD6E
:102F80003CAD4DAD5EAD5BD76B017C012FA938AD7B
:102F900049AD5AAD6BA17CA18DA19EA150D79B01DB
:102FA000AC01C701B6010E94F51F6B017C012FA582
:102FB00038A949A95AA96BA57CA58DA59EA53FD77F
:102FC0009B01AC01C701B6010E94F51FA501940148
:102FD00036D72FA138A549A55AA50E94F61F2B0167
:102FE0003C019B01AC016BAD7CAD8DAD9EAD27D797
:102FF0006B017C012FA538A949A95AA96BA17CA115
:103000008DA19EA11CD79B01AC01C701B601EED7D3
:103010006B017C012FA938AD49AD5AAD6BA57CA5DC
:103020008DA59EA50CD79B01AC01C701B601DDD7CC
:10303000A501940104D72F8D38A149A15AA1D6D753
:103040006FA378A789A79AA7A30192016FA978AD6A
:1030500089AD9AADF4D66B017C012FA538A949A999
:103060005AA96F8D78A189A19AA1E9D69B01AC01DB
:10307000C701B601BAD76B017C012BAD3CAD4DAD9C
:103080005EAD6BA57CA58DA59EA5D9D69B01AC0197
:10309000C701B601ABD7A5019401D1D62BA13CA1A4
:1030A0004DA15EA1A3D76BAB7CAB8DAB9EABA30157
:1030B00092016FA578A989A99AA9C1D66B017C0153
:1030C0002FA938AD49AD5AAD6F8D78A189A19AA1CC
:1030D000B6D69B01AC01C701B60188D76B017C0154
:1030E0002BAD3CAD4DAD5EAD6BA17CA18DA19EA184
:1030F000A6D69B01AC01C701B60177D7A501940103
:103100009ED62BA53CA54DA55EA570D74B015C01B5
:10311000A3019201C301B20192D66B017C012FA1E0
:1031200038A549A55AA5CA01B90189D69B01AC01A8
:10313000C701B6015BD76B017C012BA93CA94DA946
:103140005EA9CA01B9017BD69B01AC01C701B601DA
:103150004DD76B017C01A5019401C501B4016FD667
:103160009B01AC01C701B60141D70E9497219B0189
:10317000AC0160E070E080E89FE30E94D3206B0127
:103180007C019B01AC01C301B20159D660930002DE
:10319000709301028093020290930302A7019601AB
:1031A0006FA178A589A59AA54AD660930402709369
:1031B00005028093060290930702A70196016BA96E
:1031C0007CA98DA99EA93BD6609308027093090241
:1031D00080930A0290930B02A7019601C501B401E6
:1031E0002ED660930C0270930D0280930E02909382
:1031F0000F02409000025090010260900202709015
:103200000302A3019201C301B20119D66BA37CA3EF
:103210008DA39EA3C0900402D0900502E090060208
:10322000F0900702CF8ED8A2E9A2FAA2A7019601D8
:10323000C701B60104D66BA77CA78DA79EA7C09037
:103240000802D0900902E0900A02F0900B02A70158
:103250009601C701B601F3D56FA378A789A79AA7EE
:1032600080900C0290900D02A0900E02B0900F0280
:10327000A5019401C501B401E2D56FA778AB89AB74
:103280009AAB2BA53CA54DA55EA56BA17CA18DA1FC
:103290009EA1ACD62FA138A549A55AA5A6D62FA583
:1032A00038A949A95AA9A1D66BAB7CAB8DAB9EAB13
:1032B000A70196016F8D78A189A19AA1C0D56FABA6
:1032C00078AF89AF9AAFA5019401C301B201B7D518
:1032D0009B01AC016FA978AD89AD9AAD87D69B01F2
:1032E000AC0184D62BA93CA94DA95EA909D76BAB2B
:1032F0007CAB8DAB9EABA50194016F8D78A189A1AC
:103300009AA19DD56FAB78AF89AF9AAFA70196010F
:10331000C301B20194D59B01AC016FA978AD89AD11
:103320009AAD63D69B01AC0161D6C4D66FAB78AFC2
:1033300089AF9AAF2BA53CA54DA55EA56BA17CA13D
:103340008DA19EA152D62FA138A549A55AA54DD62B
:103350002FA538A949A95AA949D66BA37CA38DA347
:103360009EA32F8D38A149A15AA1C301B20167D5EF
:103370002B013C01A5019401C701B60160D59B0159
:10338000AC01C301B20132D69B01AC012FD62BA1F7
:103390003CA14DA15EA1B4D64B015C016FA978ADF3
:1033A00089AD9AAD905821EE3EE245E652E447D50C
:1033B0006093310570933205809333059093340503
:1033C00021EE3EE245E652E46BA97CA98DA99EA9B7
:1033D00036D52FE832EC45E051E407D66093350549
:1033E00070933605809337059093380521EE3EE2C1
:1033F00045E652E4C501B40122D5609339057093C6
:103400003A0580933B0590933C050C94F30F0E9482
:103410005305009171031091720320917303309151
:103420007403601771078207930740F46093710378
:1034300070937203809373039093740300917103EC
:103440001091720320917303309174036B017C011E
:10345000C01AD10AE20AF30A970186010A3F110550
:103460002105310510F40C94EE0F609371037093F5
:103470007203809373039093740324EF31E040E070
:1034800050E02093DA043093DB044093DC04509343
:10349000DD041092DE041092DF041092E00410921A
:1034A000E1048091D2049091D304A091D404B0910E
:1034B000D5048093D6049093D704A093D804B093F6
:1034C000D9040E9453056093D2047093D30480936F
:1034D000D4049093D5040E9453056093CE04709356
:1034E000CF048093D0049093D1040E9453056B01C4
:1034F0007C0164E772E080910E0590910F050E94B7
:103500005B092AE041E050E060E070E080910E0548
:1035100090910F050E9413096BE772E080910E05F0
:1035200090910F050E945B092AE0B701A6018091E6
:103530000E0590910F050E9413096DE772E08091CE
:103540000E0590910F050E945B098091D204909125
:10355000D304A091D404B091D504B701A601481BAF
:10356000590B6A0B7B0B2AE080910E0590910F0599
:103570000E9413096DE772E080910E0590910F058E
:103580000E945B094091D2045091D3046091D4040D
:103590007091D5048091D6049091D704A091D8045D
:1035A000B091D904481B590B6A0B7B0B2AE0809120
:1035B0000E0590910F050E9413096FE772E080914C
:1035C0000E0590910F050E945B090E945305AB0107
:1035D000BC012AE080910E0590910F050E9413090D
:1035E00000910E0510910F0561E872E0C8010E947C
:1035F000FE0860E572E0C8010E94FE080E945305C3
:103600004B015C016B017C0135E0C30ED11CE11C58
:10361000F11C0E945305681579058A059B0528F061
:10362000C616D706E806F906A0F70E945305609370
:10363000D2047093D3048093D4049093D5040C9453
:10364000EE0FEFE2F4E01382128288EE93E0A0E046
:10365000B0E084839583A683B78321E232E031838F
:10366000208325EC30E03587248724EC30E0378751
:10367000268720EC30E0318B208B21EC30E0338B3F
:10368000228B22EC30E0358B248B26EC30E0378B1C
:10369000268B118E128E138E148EECECF4E01682B3
:1036A0001782108611861286138614861586168652
:1036B0001786108A118A128A138A148A158AE4E1FD
:1036C000F5E01382128284839583A683B78383E314
:1036D00092E091838083E0E2F5E01082118281E044
:1036E000828382E083831582168217821086118678
:1036F000128613861486158616861786108A118AF6
:10370000128A138A148A158A168A178A108E118EC5
:10371000128E138E148E13A214A215A216A217A233
:1037200010A611A612A613A614A615A616A617A6CD
:1037300010AA11AA12AA13AA14AA15AA16AA17AA9D
:1037400010AE11AE12AE13AE14AE15AE16AE109290
:103750005F0510926005109261051092620510924B
:103760009F051092A0051092A1051092A20510923B
:10377000A3051092A4051092A5051092A60510921B
:10378000A7051092A8051092A9051092AA051092FB
:10379000AB051092AC051092AD051092AE051092DB
:1037A000AF051092B0051092B1051092B2051092BB
:1037B000B3051092B4051092B5051092B60510929B
:1037C000B7051092B8051092B9051092BA0510927B
:1037D000BB051092BC051092BD051092BE0510925B
:1037E000BF051092C0051092C1051092C20510923B
:1037F000C3051092C4051092C5051092C60510921B
:10380000C7051092C8051092C9051092CA051092FA
:10381000CB051092CC051092CD051092CE051092DA
:10382000CF051092D0051092D1051092D2051092BA
:10383000D3051092D4051092D5051092D60510929A
:10384000D7051092D8051092D9051092DA058FEF9E
:1038500084830C94AE080F931F93CF93DF938C0156
:10386000C0E0D0E0F801EC0FFD1F6491662341F049
:103870008FE294E00E947802892B11F02196F2CF1A
:1038800060E572E08FE294E00E94FE088C0F9D1FBD
:10389000DF91CF911F910F910895EF920F931F9396
:1038A000CF93DF93E80147FD02C034E001C034E16B
:1038B000042E000C550B57FF03C05195419551093B
:1038C000E32E022F242FAE0107D0CE01DF91CF913E
:1038D0001F910F91EF9008958F929F92AF92BF9298
:1038E000CF92DF92EF92FF920F931F93CF93DF93CC
:1038F000CDB7DEB729970FB6F894DEBF0FBECDBFA8
:103900006A01122FB02E2BE3201720F0FF24F3942E
:10391000F00E02C02CE3F22E0F2D27E0AE014F5F18
:103920005F4F50D1BC014981842F8970813031F0C3
:10393000E1FC06C0E0FE06C090E205C09DE203C0C7
:103940009BE201C090E05E2D507143FF3CC091119D
:1039500002C083E001C084E0811718F4212F281BE6
:1039600001C020E051110BC0F601822F30E2882304
:1039700019F031938150FBCFC20ED11C20E0992366
:1039800029F0D6019C93F60131966F01C60103968A
:10399000E2FE0AC03EE4D6013C9341E411964C930A
:1039A000119712963C9306C03EE6F601308341E63D
:1039B00041833283FC01322F40E2332309F442C0B9
:1039C00041933150FACF42FF44C0911102C083E0CD
:1039D00001C084E0811718F4212F281B01C020E0CA
:1039E00051110BC0F601822F30E2882319F0319378
:1039F0008150FBCFC20ED11C20E0992329F0D601C3
:103A00009C93F60131966F01C6010396E2FE0BC04E
:103A100039E4D6013C933EE411963C93119736E489
:103A200012963C9307C039E6F60130833EE63183B7
:103A300036E63283FC01322F40E2332319F0419302
:103A40003150FBCFFC01E20FF11D10828EEF9FEF92
:103A5000A6C021E030E0911102C020E030E016164F
:103A600017061CF4FB01319602C0E1E0F0E02E0FD6
:103A70003F1FBB2021F0EB2DF0E0319602C0E0E0CB
:103A8000F0E02E0F3F1FE12FF0E02E173F071CF450
:103A9000121B212F01C020E08E2D887159F4F601F0
:103AA000822F30E2882319F031938150FBCFC20E70
:103AB000D11C20E0992329F0D6019C93F601319680
:103AC0006F0151110BC0F601822F90E3882319F08A
:103AD00091938150FBCFC20ED11C20E00F2D060F19
:103AE0009A81342F307144FF03C0913309F401509F
:103AF000101624F4093018F008E001C001E0AB0111
:103B000077FF02C040E050E0FB01E41BF50BA1E0B1
:103B1000B0E0AC0FBD1FEA0FFB1F8EE2A82E4B01D9
:103B2000801A91080B2D10E01195019511094F3F56
:103B3000BFEF5B0721F4D601AC9211966D016417BB
:103B400075072CF08416950614F4818101C080E37A
:103B5000415051093196D60111967D014017510708
:103B600024F0D6018C936701E2CF6417750739F40E
:103B7000963320F4953319F4311101C081E3F60135
:103B80008083F701822F90E2882319F0919381506E
:103B9000FBCFF701E20FF11D108280E090E0299643
:103BA0000FB6F894DEBF0FBECDBFDF91CF911F914E
:103BB0000F91FF90EF90DF90CF90BF90AF909F90CC
:103BC0008F900895283008F027E03327DA01990F05
:103BD000311D87FD916000966105710539F43260F1
:103BE0002E5F3D9330E32A95E1F708959F3F30F033
:103BF00080387105610509F03C5F3C5F3D93913071
:103C000008F08068911DDF93CF931F930F93FF926D
:103C1000EF92192F987F9695E92F96959695E90F33
:103C2000FF27E453FE4F99273327EE24FF24A701F3
:103C3000E70105900894079428F4360FE71EF81E54
:103C4000491F511D660F771F881F991F0694A1F702
:103C50000590079428F4E70EF81E491F561FC11D52
:103C6000770F881F991F661F0694A1F70590079488
:103C700028F4F80E491F561FC71FD11D880F991F22
:103C8000661F771F0694A1F70590079420F4490F4B
:103C9000561FC71FD81F990F661F771F881F0694CE
:103CA000A9F784911095177041F0D695C79557954F
:103CB0004795F794E7941A95C1F7E2E7F1E0689425
:103CC0001590159135916591959105907FE27395C9
:103CD000E118F10A430B560BC90BD009C0F7E10CF0
:103CE000F11E431F561FC91FD01D7EF4703311F4FF
:103CF0008A95E6CFE894015030F0080F0AF40027C7
:103D0000021708F4202F2395022F7A3328F079E345
:103D10007D932A95E9F710C07D932A9589F606943C
:103D200097956795379517951794E118F10A430B06
:103D3000560BC90BD00998F023957E9173957A3371
:103D400008F070E37C932013B8F77E9170617D9347
:103D500030F0839571E37D9370E32A95E1F71124A8
:103D6000EF90FF900F911F91CF91DF91992787FDE1
:103D70009095089540D008F481E00895E89409C032
:103D800097FB3EF490958095709561957F4F8F4F8E
:103D90009F4F9923A9F0F92F96E9BB279395F695A4
:103DA000879577956795B795F111F8CFFAF4BB0F22
:103DB00011F460FF1BC06F5F7F4F8F4F9F4F16C086
:103DC000882311F096E911C0772321F09EE8872F10
:103DD000762F05C0662371F096E8862F70E060E0CC
:103DE0002AF09A95660F771F881FDAF7880F969545
:103DF000879597F90895990F0008550FAA0BE0E8E9
:103E0000FEEF16161706E807F907C0F0121613069C
:103E1000E407F50798F0621B730B840B950B39F4DC
:103E20000A2661F0232B242B252B21F408950A2642
:103E300009F4A140A6958FEF811D811D08950BD037
:103E400078C069D028F06ED018F0952309F05AC0D8
:103E50005FC01124A2C07ED0A0F3959FD1F3950F2F
:103E600050E0551F629FF001729FBB27F00DB11DFE
:103E7000639FAA27F00DB11DAA1F649F6627B00D8E
:103E8000A11D661F829F2227B00DA11D621F739F77
:103E9000B00DA11D621F839FA00D611D221F749F85
:103EA0003327A00D611D231F849F600D211D822FCC
:103EB000762F6A2F11249F5750408AF0E1F0882313
:103EC0004AF0EE0FFF1FBB1F661F771F881F915020
:103ED0005040A9F79E3F510570F014C05EC05F3F8F
:103EE000ECF3983EDCF3869577956795B795F79553
:103EF000E7959F5FC1F7FE2B880F911D96958795DB
:103F000097F9089597F99F6780E870E060E0089559
:103F10009FEF80EC089500240A94161617061806E1
:103F20000906089500240A941216130614060506BD
:103F30000895092E0394000C11F4882352F0BB0F4E
:103F400040F4BF2B11F460FF04C06F5F7F4F8F4FB1
:103F50009F4F089557FD9058440F551F59F05F3FEC
:103F600071F04795880F97FB991F61F09F3F79F09B
:103F700087950895121613061406551FF2CF46951D
:103F8000F1DF08C0161617061806991FF1CF86959F
:103F90007105610508940895E894BB276627772783
:103FA000CB0197F90895A1E21A2EAA1BBB1BFD01B4
:103FB0000DC0AA1FBB1FEE1FFF1FA217B307E40708
:103FC000F50720F0A21BB30BE40BF50B661F771F60
:103FD000881F991F1A9469F7609570958095909540
:103FE0009B01AC01BD01CF0108955058BB27AA2702
:103FF0000ED09FCF90DF30F095DF20F031F49F3F5F
:1040000011F41EF485CF0EF4E095E7FB7BCFE92F8A
:10401000A1DF80F3BA17620773078407950718F0CA
:1040200071F49EF5B9CF0EF4E0950B2EBA2FA02DAA
:104030000B01B90190010C01CA01A0011124FF2755
:10404000591B99F0593F50F4503E68F11A16F04050
:10405000A22F232F342F4427585FF3CF469537954F
:104060002795A795F0405395C9F77EF41F16BA0B14
:10407000620B730B840BBAF09150A1F0FF0FBB1FC2
:10408000661F771F881FC2F70EC0BA0F621F731F0B
:10409000841F48F4879577956795B795F7959E3F68
:1040A00008F0B3CF9395880F08F09927EE0F9795F6
:1040B000879508959F939F77EEE389379E0720F4B5
:1040C000E8E0F1E018D109C0D6D09058A2EA2AED74
:1040D0003FE049EC5FE39BDF2CDF0F9007FC90583B
:1040E000089519DF58F080E891E009F49EEF1ADF97
:1040F00028F040E851E059F45EEF09C009CF4CCFF9
:10410000E92FE07827DF68F3092E052AC1F3261787
:1041100037074807590738F00E2E07F8E02569F0F1
:10412000E025E0640AC0EF6307F8009407FADB01BA
:10413000B9019D01DC01CA01AD01EF9343D0F9DE65
:104140000AD05F91552331F02BED3FE049E450FD5B
:1041500049EC4CCF0895DF93DD27B92FBF7740E8B6
:104160005FE31616170648075B0710F4D92FD4D063
:104170009F938F937F936F9318D1ECE1F1E096D0EA
:10418000D8DE2F913F914F915F9165DEDD2349F09D
:104190009058A2EA2AED3FE049EC5FE3D0785D2732
:1041A00036DFDF91C6CE0CD0C4CEBCDE40F0B3DE2D
:1041B00030F021F45F3F19F0A5CE5111EECEA8CE1C
:1041C000C9DE98F39923C9F35523B1F3951B550B19
:1041D000BB27AA2762177307840738F09F5F5F4FDA
:1041E000220F331F441FAA1FA9F333D00E2E3AF01B
:1041F000E0E830D091505040E695001CCAF729D035
:10420000FE2F27D0660F771F881FBB1F2617370783
:104210004807AB07B0E809F0BB0B802DBF01FF27B3
:1042200093585F4F2AF09E3F510568F06BCEB5CE94
:104230005F3FECF3983EDCF3869577956795B795ED
:10424000F7959F5FC9F7880F911D9695879597F908
:104250000895E1E0660F771F881FBB1F6217730781
:104260008407BA0720F0621B730B840BBA0BEE1F96
:1042700088F7E0950895DF93CF931F930F938B01F9
:10428000EC01E9E4F1E012D054DE9801AE018B01BB
:10429000EC0160E070E080E89FE3A7DE48D0980181
:1042A000AE010F911F91CF91DF91D5CDDF93CF93C9
:1042B0001F930F93FF92EF92DF927B018C01689422
:1042C00005C0DA2EEF01C7DDFE01E894A591259126
:1042D000359145915591AEF3EF0199DEFE019701BD
:1042E000A801DA9479F7DF90EF90FF900F911F917A
:1042F000CF91DF9108959F938F937F936F93FF9357
:10430000EF939B01AC019BDDEF91FF91CFDF2F91EC
:104310003F914F915F9193CD9B01AC0160E070E0C4
:1043200080E89FE340CF11F40EF4F2CD41C01ADED5
:10433000D0F39923D9F3CEF39F57550B87FF46D07F
:104340000024A0E640EA900180585695979528F4FD
:10435000805C660F771F881F20F0261737074807F5
:1043600030F4621B730B840B202931294A2BA6954C
:1043700017940794202531254A2758F7660F771F91
:10438000881F20F026173707480730F4620B730B9D
:10439000840B200D311D411DA09581F7B901842F9B
:1043A0009158880F9695879508959B01AC0147CD4C
:1043B0009F3F31F0915020F4879577956795B79599
:1043C000880F911D9695879597F9089591505040C3
:1043D000660F771F881FD2F70895AA1BBB1B51E1F8
:1043E00007C0AA1FBB1FA617B70710F0A61BB70B65
:1043F000881F991F5A95A9F780959095BC01CD010A
:104400000895052E97FB16F400940FD057FD05D0A4
:10441000CADD07FC02D046F408C05095409530959F
:1044200021953F4F4F4F5F4F089590958095709520
:1044300061957F4F8F4F9F4F0895EE0FFF1F881F8D
:104440008BBF0790F691E02D199481E090E0F894ED
:10445000E6C2FB01DC010D900020E9F71197019005
:104460000D920020E1F708950F931F93CF93DF93F0
:10447000CDB7DEB72E970FB6F894DEBF0FBECDBF17
:104480000E891F8986E08C831A8309838FEF9FE74B
:104490009E838D83AE01465E5F4F688D798DCE0120
:1044A000019610D0EF81F885E00FF11F10822E9653
:1044B0000FB6F894DEBF0FBECDBFDF91CF911F9135
:1044C0000F9108952F923F924F925F926F927F9239
:1044D0008F929F92AF92BF92CF92DF92EF92FF9214
:1044E0000F931F93CF93DF93CDB7DEB72B970FB604
:1044F000F894DEBF0FBECDBF6C017B018A01FC01C9
:1045000017821682838181FFBFC1CE0101963C01D3
:10451000F6019381F70193FD859193FF81917F01CE
:10452000882309F4ADC1853239F493FD859193FF59
:1045300081917F01853221F4B60190E0D6D1E8CF98
:10454000912C212C312CFFE1F315D8F08B3279F02E
:1045500038F4803279F08332A1F4232D20611DC01C
:104560008D3261F0803369F4232D216016C0832DD4
:104570008260382EE32DE4603E2E2AC0F32DF860D1
:104580001DC037FC2DC020ED280F2A3040F08E32A0
:10459000B9F436FC75C1232D2064322E19C036FEC5
:1045A00006C08AE0989E200D1124922E11C0EAE0E8
:1045B0002E9E200D1124222EF32DF0623F2E08C0D6
:1045C0008C3621F4832D8068382E02C0883641F461
:1045D000F70193FD859193FF81917F018111B3CF05
:1045E000982F9F7D9554933028F40C5F1F4F9FE3C5
:1045F00099830DC0833631F0833771F0833509F02C
:1046000055C020C0F801808189830E5F1F4F882428
:104610008394912C530112C02801F2E04F0E511CDB
:10462000F801A080B18036FE03C0692D70E002C0A1
:104630006FEF7FEFC5014ED14C018201F32DFF7763
:104640003F2E15C0280122E0420E511CF801A08027
:10465000B18036FE03C0692D70E002C06FEF7FEFBE
:10466000C5012DD14C01F32DF0683F2E820133FCA2
:1046700019C0822D90E088169906A0F4B60180E258
:1046800090E033D12A94F5CFF50137FC859137FEC0
:1046900081915F01B60190E028D121102A9421E098
:1046A000821A91088114910479F7E1C0843611F0DF
:1046B000893639F5F80137FE07C060817181828142
:1046C00093810C5F1F4F08C060817181072E000C21
:1046D000880B990B0E5F1F4FF32DFF763F2E97FF30
:1046E00009C090958095709561957F4F8F4F9F4F32
:1046F000F0683F2E2AE030E0A30133D1882E8618DF
:1047000044C0853731F4232D2F7EB22E2AE030E0CD
:1047100025C0932D997FB92E8F36C1F018F48835B6
:1047200079F0AEC0803719F0883721F0A9C0E92FA1
:10473000E061BE2EB4FE0DC0FB2DF460BF2E09C09B
:1047400034FE0AC0292F2660B22E06C028E030E0D1
:1047500005C020E130E002C020E132E0F801B7FE00
:1047600007C060817181828193810C5F1F4F06C0F9
:104770006081718180E090E00E5F1F4FA301F1D056
:10478000882E8618FB2DFF773F2E36FE0DC0232D79
:104790002E7FA22E891458F434FE0BC032FC09C0BF
:1047A000832D8E7EA82E05C0B82CA32C03C0B82C58
:1047B00001C0B92CA4FE0FC0FE01E80DF11D8081DF
:1047C000803321F49A2D997EA92E09C0A2FE06C03D
:1047D000B394B39404C08A2D867809F0B394A3FCF3
:1047E00010C0A0FE06C0B21480F4280C922C9B18B6
:1047F0000DC0B21458F4B60180E290E076D0B394C4
:10480000F8CFB21418F42B1802C0982C212CA4FE57
:104810000FC0B60180E390E068D0A2FE16C0A1FCF4
:1048200003C088E790E002C088E590E0B6010CC0C4
:104830008A2D867851F0A1FE02C08BE201C080E291
:10484000A7FC8DE2B60190E050D0891430F4B60197
:1048500080E390E04AD09A94F8CF8A94F301E80D6F
:10486000F11D8081B60190E040D08110F6CF22206A
:1048700009F44ECEB60180E290E037D02A94F7CF0B
:10488000F6018681978102C08FEF9FEF2B960FB6BE
:10489000F894DEBF0FBECDBFDF91CF911F910F9176
:1048A000FF90EF90DF90CF90BF90AF909F908F9050
:1048B0007F906F905F904F903F902F900895FC01F4
:1048C0000590615070400110D8F7809590958E0F3B
:1048D0009F1F0895FC016150704001900110D8F7AE
:1048E000809590958E0F9F1F08950F931F93CF93E0
:1048F000DF93FB01238121FD03C08FEF9FEF2CC0CD
:1049000022FF16C046815781248135814217530703
:1049100044F4A081B1819D012F5F3F4F31832083FB
:104920008C93268137812F5F3F4F3783268314C0B6
:104930008B01EC01FB010084F185E02D1995892B99
:10494000E1F6D80116968D919C91179701961796CE
:104950009C938E931697CE01DF91CF911F910F916B
:104960000895FA01AA27283051F1203181F1E89405
:104970006F936E7F6E5F7F4F8F4F9F4FAF4FB1E052
:104980003ED0B4E03CD0670F781F891F9A1FA11D4D
:10499000680F791F8A1F911DA11D6A0F711D811D4E
:1049A000911DA11D20D009F468943F912AE0269F13
:1049B00011243019305D3193DEF6CF010895462F72
:1049C0004770405D4193B3E00FD0C9F7F6CF462F53
:1049D0004F70405D4A3318F0495D31FD40524193BC
:1049E00002D0A9F7EACFB4E0A69597958795779579
:1049F0006795BA95C9F700976105710508959B0100
:104A0000AC010A2E06945795479537952795BA9588
:104A1000C9F7620F731F841F951FA01D0895F89496
:024A2000FFCFC6
:104A22000000803F000000000000000000000000C5
:104A3200008000800080FF7FFF7FFF7F000000007A
:104A42000078022B081002C40241021F0233020046
:104A5200000000A9037D03D80351037503610352CB
:104A620003564D4450565F317C315F564D4450568B
:104A72000D0A00436F756C64206E6F7420636F6E55
:104A82006E65637420746F204D5055393235303A5B
:104A920020307800564D4450455F003A323A007C4F
:104AA200005F564D445045005374787C7961773DE0
:104AB20025737C70697463683D25737C726F6C6CBE
:104AC2003D25737C64656C74613D25737C456E6421
:084AD20000252E3033640000C2
:00000001FF
